:100000000C9434000C9451000C9451000C94DA00C0
:100010000C9451000C9451000C9451000C9451001C
:100020000C9451000C9451000C9451000C94F1016B
:100030000C9451000C9451000C94CD010C9451007F
:100040000C9451000C9451000C9451000C945100EC
:100050000C9451000C9451000C9451000C945100DC
:100060000C9451000C94510011241FBECFEFD8E026
:10007000DEBFCDBF11E0A0E0B1E0E8EDF2E102C0EB
:1000800005900D92A03BB107D9F721E0A0EBB1E0BC
:1000900001C01D92A43CB207E1F70E948C030C94AE
:1000A0006A090C940000EF92FF920F931F93CF9375
:1000B000DF93CDB7DEB728970FB6F894DEBF0FBE3B
:1000C000CDBF0E945202CE0107960E94E80288230B
:1000D000D1F3888590E0982F88272F81280F392F1A
:1000E000311D49E0429FC001439F900D112465E0FE
:1000F00070E00E9402068B01CB0134E09595879554
:100100003A95E1F72091B3012817190641F440917F
:10011000B2019B012F7033274217130651F1902F24
:100120009F709093B201805E8093B3011F929F9362
:100130001F928F938CE491E09F938F931F9286E0A0
:100140008F93CE0101967C019F938F930E946B0643
:1001500060E080E00E943303C7010E9480031E5FBD
:100160001093C0010093BF010FB6F894DEBF0FBE1D
:10017000CDBF28960FB6F894DEBF0FBECDBFDF917E
:10018000CF911F910F91FF90EF90089560E080E074
:100190000E94330383E591E00E94800360E081E0E8
:1001A0000E94330383E591E00E94800360E080E0D9
:1001B0000C9433031F920F920FB60F9211248F935A
:1001C0009F931092B00193B18091B001892B8093DD
:1001D000B0011092C3011092B4018091B0019091CE
:1001E000C3018870892B8093C3018091B0019091E5
:1001F000B4018071892B8093B4018091B601811183
:1002000010C08091C301882321F081E08093BE015A
:1002100066C08091B4018823F1F082E08093BE0132
:1002200011C08091B601813009F04FC08091B401B6
:10023000882311F083E0EACF8091C30181110BC0C4
:100240001092BE018091C1019091C20101979093DB
:10025000C2018093C10180914B01882309F458C0E9
:100260008091C1019091C201CC9734F48CE390E06D
:100270009093C2018093C1018091C1019091C2010C
:100280008536910534F084E690E09093C201809326
:10029000C1018091C1019091C2019093B8018093F6
:1002A000B7019091BE018091B601981739F081E0B5
:1002B00080934A018091BE018093B6019F918F91F6
:1002C0000F900FBE0F901F9018958091B60182304D
:1002D00099F48091B401811108C01092BE018091FF
:1002E000C1019091C2010196B2CF8091C3018823D0
:1002F00009F4B1CF83E092CF8091B401811102C0A3
:1003000081E08CCF8091C3018111A5CF82E07ECFA7
:100310008091C1019091C20197FF04C01092C20167
:100320001092C1018091C1019091C201499734F0AE
:1003300088E190E09093C2018093C1018091C10156
:100340009091C2019093BA018093B901AACFCF9343
:10035000DF93EC019C0150E040E062E17AE780E04D
:1003600090E00E94160627BDD093BC01C093BB014C
:10037000EEE6F0E0808182608083DF91CF91089586
:10038000EFE6F0E08081826080830895EFE6F0E0A0
:1003900080818D7F80835A9808951F920F920FB6A7
:1003A0000F9211248F939F938091BB019091BC0178
:1003B00001979093BC018093BB018091BB01909108
:1003C000BC01892B61F480916E008D7F80936E005B
:1003D0009F918F910F900FBE0F901F901895359A97
:1003E000F7CF1F920F920FB60F9211248F93809127
:1003F000BD018F5F8093BD018091BD018A3019F4EA
:100400004A9A1092BD018F910F900FBE0F901F90CE
:1004100018953B9A8FE599E00197F1F700C000002D
:100420003B988BE091E00197F1F700C00000339911
:100430000AC0339BFECF87EC90E00197F1F700C034
:10044000000081E0089580E0089543983B9A8AE097
:100450008A95F1F700C03B988FEE90E00197F1F795
:1004600000C00000089543983B9A8FEE90E00197FA
:10047000F1F700C000003B989AE09A95F1F700C0B0
:100480000895CF93DF93D82FC8E0D0FF08C00E9413
:100490002502D695C150C9F7DF91CF9108950E94EA
:1004A0003302F7CF0E940902882331F08CEC0E94BE
:1004B000410284E40C94410208953B9A8AE08A95B3
:1004C000F1F700C03B98E5E3EA95F1F7000086B14B
:1004D000E7ECF0E03197F1F700C000008870089574
:1004E0001F93CF93DF93D8E011E0C0E00E945D023C
:1004F0008111C12B110FD150C9F78C2FDF91CF91F2
:100500001F910895EF92FF920F931F93CF93DF9364
:10051000CDB7DEB729970FB6F894DEBF0FBECDBFBB
:100520003B9843980E94090281110EC080E02996F1
:100530000FB6F894DEBF0FBECDBFDF91CF911F91F4
:100540000F91FF90EF9008958CEC0E9441028EEB8A
:100550000E9441028E010F5F1F4F7E012AE0E20ED2
:10056000F11C0E947002F80181938F01EE15FF05C6
:10057000C1F70E9409028823C9F28CEC0E94410253
:100580008EE40E9441028B810E9441028C810E9474
:1005900041028FE70E9441028FE891E00197F1F755
:1005A00000C000000E940902882309F4BFCF8CEC30
:1005B0000E94410288E40E9441029FEFE9EFF0E0CF
:1005C0009150E040F040E1F700C0000081E0AFCF83
:1005D000CF93DF93EC010E945D02882301F10E941A
:1005E00009028823D1F08CEC0E9441028EEB0E941C
:1005F00041020E94700288830E94700289830E94D7
:1006000070020E9470020E9470020E9470020E949A
:1006100070020E9470020E94700281E001C080E0BE
:10062000DF91CF9108959BB19F709BB99BB1807F63
:10063000892B8BB9299A299A29980895CF93C82F85
:1006400028980E941303CF7020E1C29FC00111249B
:100650008C2B0E9413038FE39FE10197F1F700C0F9
:100660000000CF910895811104C080E8860F0C949A
:100670001E0380ECFBCF84B1836084B98AB1806FA4
:100680008AB98FE59AEE0197F1F700C0000080E388
:100690000E9413038FE19EE40197F1F700C0000070
:1006A00080E30E9413038FED91E00197F1F700C002
:1006B000000080E30E94130380E20E9413038FE393
:1006C0009FE10197F1F700C0000088E20E941E033D
:1006D0008FE00C941E03CF93C82F289A0E94130317
:1006E000CF7020E1C29FC00111248C2B0E94130304
:1006F0008FE39FE10197F1F700C00000CF910895CB
:10070000CF93DF93EC018991811103C0DF91CF91E9
:1007100008950E946B03F7CFCF93DF93CDB7DEB779
:1007200061970FB6F894DEBF0FBECDBF0E943B03AA
:100730000E94820281E090E00E94190990E090936B
:10074000B8018093B7018091B7019091B8018536C7
:10075000910534F48091B7019091B801CC9734F4AD
:1007600080E590E09093B8018093B70182E090E03B
:100770000E94190990E09093BA018093B901809189
:10078000B9019091BA018F3F910531F48AE090E070
:100790009093BA018093B90184B5826084BD85B518
:1007A000846085BD8091810088608093810088EAA3
:1007B00091E6909389008093880080918100836006
:1007C000809381008AB18C608AB9419A429A3D9A9D
:1007D00085B1886185B980916800816080936800E7
:1007E00080916B00886180936B008091B90190913A
:1007F000BA019093C2018093C10178940E94C6000F
:1008000085E691E00E9480032FEF83ED90E3215075
:1008100080409040E1F700C000000E94C60086B111
:100820008093B0011092C3011092B4018091B00185
:100830009091C3018270892B8093C3018091B00194
:100840009091B4018072892B8093B4018091B4019E
:10085000811152C08091C30181114EC01092B60126
:100860008091B6018093BE01FF24F39452E0E52EFF
:10087000CE0101966C016CE0A62EB12C09E711E0C7
:100880000E9453009090B101911054C080914B018F
:10089000823009F45B9A2091B7013091B8018091C0
:1008A000BF019091C00144E0220F331F4A95E1F748
:1008B000281739070CF059C02091B7013091B801C1
:1008C000B4E0220F331FBA95E1F7821B930B819797
:1008D0005CF1E092B1015B985A9AE091B901F09114
:1008E000BA01EE0FFF1FE85EFE4F808191810E94EA
:1008F000A701F0924A0139C08091B401811108C06A
:100900008091C301882321F081E08093B601A8CFB4
:100910008091B401882331F08091C301811102C01C
:1009200082E0F3CF83E0F1CFF092B1015B980E94B7
:10093000C001DFCF91E09912C3C02091B70130917F
:10094000B8018091BF019091C001E4E0220F331FF4
:10095000EA95E1F7281739070CF492C01092B1011B
:100960000E94C6015B9A90924A0186B181FDD2C075
:1009700010924B018091B9019091BA019093C201FC
:100980008093C1016BE081E00E94330385E791E031
:100990000E94800365E081E00E94330383E691E0DA
:1009A0000E94800380914A01882309F469CF109244
:1009B0004A0180914B01823009F0C7C06BE081E0B1
:1009C0000E94330385E791E00E94800360E081E0AC
:1009D0000E9433038091B7019091B8019F938F9348
:1009E0001F930F931F9295E0992E9F92DF92CF92C3
:1009F0000E946B06C6010E9480036DE080E00E94A9
:100A000033038091B9019091BA01B5010E940206A9
:100A1000FC01EE0FFF1FE050FF4F808191810E948B
:100A200080036CE081E00E9433038091B9019091D2
:100A3000BA01B5010E9402066D5F7F4F7F936F93ED
:100A40001F930F931F929F92DF92CF920E946B068B
:100A500010924B010FB6F894DEBF0FBECDBFC6019A
:100A60000E94800366E080E00E9433038091B10120
:100A7000823009F0BDC08DE791E00E94800300CF75
:100A80002091B7013091B80174E0220F331F7A959D
:100A9000E1F7821B930B81970CF467CFE092B101D1
:100AA0000E94C6015A9AE091B901F091BA01EE0F85
:100AB000FF1FE85EFE4F808191810E94A70153CF06
:100AC00022E0921252CF2091B7013091B80180916B
:100AD000BF019091C00154E0220F331F5A95E1F7F6
:100AE000281739072CF01092B1015A985B9A01CF60
:100AF0002091B7013091B80144E0220F331F4A958D
:100B0000E1F7821B930B80970CF02FCFF092B1018D
:100B10005A980DCF82FD46CFF0924B018091B701DC
:100B20009091B8019093C2018093C1016BE081E084
:100B30000E94330383E691E00E94800365E081E038
:100B40000E94330387E791E02BCF80914B018823EC
:100B5000E1F060E081E00E9433038091B701909161
:100B6000B8019F938F931F930F931F9285E08F93EC
:100B7000DF92CF920E946B066091B7017091B8012D
:100B800081E090E00E94210965CF6DE080E00E9445
:100B900033038091B9019091BA01B5010E94020618
:100BA000FC01EE0FFF1FE050FF4F808191810E94FA
:100BB00080036CE081E00E9433038091B901909141
:100BC000BA01B5010E9402066D5F7F4F7F936F935C
:100BD0001F930F931F9285E08F93DF92CF920E9415
:100BE0006B066091B9017091BA0182E090E0CACFC2
:100BF000813019F482E891E040CF811141CE87E83D
:100C000091E03BCF97FB072E16F4009407D077FDB9
:100C100009D00E94350607FC05D03EF490958195D9
:100C20009F4F0895709561957F4F0895052E97FB0E
:100C30001EF400940E942D0657FD07D00E9449061D
:100C400007FC03D04EF40C942D065095409530953A
:100C500021953F4F4F4F5F4F089590958095709528
:100C600061957F4F8F4F9F4F0895AA1BBB1B51E18A
:100C700007C0AA1FBB1FA617B70710F0A61BB70B0C
:100C8000881F991F5A95A9F780959095BC01CD01B1
:100C90000895A1E21A2EAA1BBB1BFD010DC0AA1FBD
:100CA000BB1FEE1FFF1FA217B307E407F50720F0D5
:100CB000A21BB30BE40BF50B661F771F881F991F50
:100CC0001A9469F760957095809590959B01AC0199
:100CD000BD01CF010895AEE0B0E0E1E7F6E00C948D
:100CE00041090D891E898F89988D26E02C831A83EE
:100CF000098397FF02C080E090E801979E838D836F
:100D0000AE01455E5F4F698D7A8DCE0101960E94DE
:100D10009B064D815E8157FD0AC02F8138854217A1
:100D200053070CF49A01020F131FF80110822E963C
:100D3000E4E00C945D09ABE0B0E0E1EAF6E00C948D
:100D400033097C013B018A01FC01178216828381F1
:100D500081FFC8C1CE0101965C01F7019381F301C7
:100D600093FD859193FF81913F01882309F453C13D
:100D7000853239F493FD859193FF81913F0185324E
:100D800029F4B70190E00E948B08E7CF912C212C29
:100D9000312CFFE1F31538F08B3211F190F48032F1
:100DA00009F1833229F137FC3CC020ED280F2A30AD
:100DB00050F536FE20C08AE0989E200D1124922E18
:100DC00006C08D3291F0803371F7689430F8F301EA
:100DD00093FD859193FF81913F018111DACF21C06D
:100DE000689431F8689432F8F2CF689433F8EFCF12
:100DF000689434F8ECCFEAE02E9E200D1124222EC8
:100E0000689435F8E4CF8E3229F436FC04C1689436
:100E100036F8DDCF8C3619F4689437F8D8CF883699
:100E2000B1F2982F9F7D95549330E0F08336A1F175
:100E30008337C1F1833509F063C02801F2E04F0E1A
:100E4000511CF801C080D180692D70E036FC02C0D1
:100E50006FEF7FEFC6010E9475084C01689437F868
:100E600082010AC00C5F1F4FFFE3F983882483943B
:100E7000912C6501E89437F833FE2DC0522C811473
:100E8000910471F5552009F468CFB70180E290E034
:100E90000E948B085A94F6CFF801808189830E5FF7
:100EA0001F4FE4CF2801F2E04F0E511CF801C08023
:100EB000D180692D70E036FC02C06FEF7FEFC60174
:100EC0000E9480084C018201D5CFB70180E290E0FA
:100ED0000E948B082A942814190409F0B0F7CECF89
:100EE000F60137FC859137FE81916F01B70190E0E3
:100EF0000E948B0851105A94F1E08F1A9108BFCFCD
:100F0000843619F0893609F077C0F80137FE6BC0D6
:100F100060817181828193810C5F1F4FF32DFF7679
:100F20003F2E97FF09C090958095709561957F4FF2
:100F30008F4F9F4F689437F82AE030E0A5010E9458
:100F4000BB08C82ECA188C2C432C36FE0CC0E89463
:100F500040F8C91440F434FE05C032FC03C0F32D40
:100F6000FE7E4F2E892C44FE95C0FE01EC0DF11D36
:100F70008081803309F087C0242D297E422E842D64
:100F80008870582E43FC95C040FE8FC09C2C821464
:100F900018F42C0C922C981844FE91C0B70180E3F1
:100FA00090E00E948B0842FE09C088E790E041FE75
:100FB00002C088E590E0B7010E948B08C91408F4CC
:100FC0008AC0CA94D12C9FEFC91AD90ACA0CDB1C5B
:100FD000F60182916F01B70190E00E948B08AC147A
:100FE000BD04B1F74FCF60817181072E000C880BD3
:100FF000990B0E5F1F4F92CFD32CE894D4F82AE0C0
:1010000030E0853739F1232D297FD22E8F3601F13B
:1010100048F48835A9F0F701868197812B96E2E1A3
:101020000C944F09803749F08837A9F7D4FE02C0E5
:101030006894D2F820E130E00DC06894D4F8F6CF7F
:1010400034FE03C0822F8660D82E20E132E002C039
:1010500028E030E0F801D7FE0FC060817181828105
:1010600093810C5F1F4FA5010E94BB08C82ECA18B0
:101070003D2CE89437F867CF6081718190E080E083
:101080000E5F1F4FF0CF42FC02C0839478CF839451
:10109000839475CF842D867809F471CFF6CFB7018C
:1010A00080E290E00E948B0883948214C0F3512C5C
:1010B00073CF522C5818821408F46ECFF8CF842DB9
:1010C000867809F47BCF8BE241FE80E247FC8DE21B
:1010D000B70190E071CFB70180E390E00E948B08E8
:1010E0009A946CCF8FEF9FEF99CFFC0105906150E0
:1010F00070400110D8F7809590958E0F9F1F08952E
:10110000FC016150704001900110D8F780959095D6
:101110008E0F9F1F08950F931F93CF93DF93182F68
:10112000092FEB018B8181FD09C01FEF0FEF812F8C
:10113000902FDF91CF911F910F91089582FF14C0DE
:101140002E813F818C819D81281739073CF4E881ED
:10115000F981CF0101969983888310838E819F81C5
:1011600001969F838E83E3CFE885F985812F0995CA
:10117000892BA1F3DACFFA01AA27283051F12031C7
:1011800081F1E8946F936E7F6E5F7F4F8F4F9F4F1B
:10119000AF4FB1E03ED0B4E03CD0670F781F891F5D
:1011A0009A1FA11D680F791F8A1F911DA11D6A0F2B
:1011B000711D811D911DA11D20D009F468943F91DE
:1011C0002AE0269F11243019305D3193DEF6CF01DD
:1011D0000895462F4770405D4193B3E00FD0C9F7A3
:1011E000F6CF462F4F70405D4A3318F0495D31FD10
:1011F0004052419302D0A9F7EACFB4E0A695979563
:10120000879577956795BA95C9F700976105710538
:1012100008959B01AC010A2E069457954795379582
:101220002795BA95C9F7620F731F841F951FA01DDC
:101230000895F999FECF92BD81BDF89A992780B59E
:101240000895262FF999FECF92BD81BDF89A019796
:1012500000B4021639F01FBA20BD0FB6F894FA9AFE
:10126000F99A0FBE08952F923F924F925F926F921C
:101270007F928F929F92AF92BF92CF92DF92EF9226
:10128000FF920F931F93CF93DF93CDB7DEB7CA1BA7
:10129000DB0B0FB6F894DEBF0FBECDBF09942A88D2
:1012A000398848885F846E847D848C849B84AA847A
:1012B000B984C884DF80EE80FD800C811B81AA8107
:1012C000B981CE0FD11D0FB6F894DEBF0FBECDBFD2
:0812D000ED010895F894FFCF31
:1012D8008C018F019201950198019B019E01A1014A
:1012E800A401A701AA01AD0183008B0093009C0013
:1012F800A500B000B900C400D000DC00E900F70088
:1013080006011501260137014A015D0172018801B4
:101318009F01B801D201EE010B0201022533642EB0
:10132800256400202020202020202020202020208C
:1013380020202020004A6169766565722050726F0E
:101348006A656374003E003C0025346400484F54CD
:1013580020005741524D00434F4F4C00432000435B
:101368002300442000442300452000462000462353
:10137800004720004723004120004123004220006D
:00000001FF
